:100000000C9472000C9493000C9493000C94930045
:100010000C9493000C9414010C94E9000C9493003C
:100020000C9493000C9493000C9493000C94930004
:100030000C9493000C9493000C9493000C949300F4
:100040000C9493000C9493000C9493000C949300E4
:100050000C9493000C9493000C9493000C949300D4
:100060000C9493000C9493000C9493000C949300C4
:100070000C9493000C9493000C9493000C949300B4
:100080000C9493000C9493000C9493000C949300A4
:100090000C9493000C9493000C9493000C94930094
:1000A0000C9493000C9493000C9493000C94930084
:1000B0000C9493000C9493000C9493000C94930074
:1000C0000C9493000C9493000C9493000C94930064
:1000D0000C9493000C9493000C94110E0C949300C8
:1000E0000C94930011241FBECFEFD1E2DEBFCDBF31
:1000F00000E00CBF13E0A0E0B2E0E0E2F3E300E0D8
:100100000BBF02C007900D92AE31B107D9F71EE0C8
:10011000AEE1B3E001C01D92A43FB107E1F70E9438
:1001200080100C948E190C940000DF93CF93CDB700
:10013000DEB7ADE2B0E0EDE2F0E080818F7E8C933F
:10014000AEE2B0E0EEE2F0E0808180618C93CF918E
:10015000DF910895DF93CF93CDB7DEB7ADE2B0E086
:10016000EDE2F0E080818F7D8C93AEE2B0E0EEE2D4
:10017000F0E0808180628C93CF91DF910895DF93CE
:10018000CF93CDB7DEB7AAE6B0E0EAE6F0E0808133
:1001900082608C93ADE3B0E0EDE3F0E080818061BC
:1001A0008C93CF91DF910895DF93CF93CDB7DEB7D6
:1001B000AAE6B0E0EAE6F0E0808188608C93ADE3E7
:1001C000B0E0EDE3F0E0808180628C93CF91DF912D
:1001D00008951F920F920FB60F9211248F939F9341
:1001E000AF93BF93DF93CF93CDB7DEB78091220358
:1001F00090912303A0912403B09125030196A11DA2
:10020000B11D8093220390932303A0932403B09302
:100210002503CF91DF91BF91AF919F918F910F9067
:100220000FBE0F901F9018951F920F920FB60F924E
:1002300011248F939F93AF93BF93DF93CF93CDB749
:10024000DEB780911E0390911F03A0912003B0910F
:1002500021030196A11DB11D80931E0390931F03DE
:10026000A0932003B0932103CF91DF91BF91AF9171
:100270009F918F910F900FBE0F901F901895DF9355
:10028000CF930F920F92CDB7DEB78A8319828A81FE
:100290008F708A83E2E2F0E0808189838981807FA8
:1002A000898399818A81892B8983E2E2F0E08981BF
:1002B00080830F900F90CF91DF910895DF93CF93BC
:1002C000CDB7DEB786E00E943F01CF91DF91089560
:1002D000DF93CF93CDB7DEB789E00E943F01CF9186
:1002E000DF910895DF93CF93CDB7DEB785E00E940D
:1002F0003F01CF91DF910895DF93CF93CDB7DEB764
:100300008AE00E943F01CF91DF910895DF93CF9360
:10031000CDB7DEB784E00E943F01CF91DF91089511
:10032000DF93CF93CDB7DEB782E00E943F01CF913C
:10033000DF910895DF93CF93CDB7DEB781E00E94C0
:100340003F01CF91DF910895DF93CF93CDB7DEB713
:1003500088E00E943F01CF91DF910895DF93CF9312
:10036000CDB7DEB780E00E943F01CF91DF910895C5
:10037000DF93CF93CDB7DEB72A970FB6F894DEBFE1
:100380000FBECDBF9A87898780E090E0A0E0B0E003
:100390008D839E83AF83B88719821A821B821C8249
:1003A00089859A85CC01A0E0B0E0BC01CD010E9416
:1003B000A416DC01CB01BC01CD0126E636E64EE8F1
:1003C00050E40E94B614DC01CB018D839E83AF8381
:1003D000B8876D817E818F8198850E94E611DC014E
:1003E000CB01CC01A0E0B0E089839A83AB83BC83CE
:1003F00010922203109223031092240310922503DB
:1004000010921E0310921F031092200310922103DA
:10041000209122033091230340912403509125031E
:1004200089819A81AB81BC81281739074A075B070C
:1004300088F420911E0330911F03409120035091B6
:10044000210389819A81AB81BC81281739074A072A
:100450005B07F0F20E94AE012A960FB6F894DEBF59
:100460000FBECDBFCF91DF910895DF93CF93CDB76E
:10047000DEB72A970FB6F894DEBF0FBECDBF9A87BE
:10048000898780E090E0A0E0B0E08D839E83AF8319
:10049000B88719821A821B821C8289859A85CC01B1
:1004A000A0E0B0E0BC01CD010E94A416DC01CB01AC
:1004B000BC01CD0125EE30ED4AEA50E40E94B614AD
:1004C000DC01CB018D839E83AF83B8876D817E81F4
:1004D0008F8198850E94E611DC01CB0189839A8384
:1004E000AB83BC8310922203109223031092240347
:1004F000109225032091220330912303409124037D
:100500005091250389819A81AB81BC818217930721
:10051000A407B50778F70E94AE012A960FB6F894A3
:10052000DEBF0FBECDBFCF91DF910895DF93CF9394
:100530000F920F92CDB7DEB79A8389830E945E0136
:1005400089819A810E9435020F900F90CF91DF919F
:100550000895DF93CF930F920F92CDB7DEB79A83B2
:1005600089830E94680189819A810E9435020F90D7
:100570000F90CF91DF910895DF93CF930F920F9259
:10058000CDB7DEB79A8389830E94720189819A81EF
:100590000E94B8010F900F90CF91DF910895DF93E3
:1005A000CF930F920F92CDB7DEB79A8389830E94C3
:1005B0007C0189819A810E94B8010F900F90CF91A0
:1005C000DF910895DF93CF930F920F92CDB7DEB7EF
:1005D0009A8389830E94860189819A81880F991F55
:1005E0009A83898389819A810E94B8010F900F9024
:1005F000CF91DF910895DF93CF930F920F92CDB7F4
:10060000DEB79A8389830E94A40189819A81880F29
:10061000991F9A83898389819A810E94B8010F90DA
:100620000F90CF91DF910895DF93CF930F920F92A8
:10063000CDB7DEB79A8389830E949A0189819A8116
:10064000880F991F9A83898389819A810E94B801B2
:100650000F900F90CF91DF910895DF93CF930F927A
:100660000F92CDB7DEB79A8389830E94A401898156
:100670009A81880F991F9A83898389819A810E9420
:10068000B8010F900F90CF91DF910895DF93CF9332
:10069000CDB7DEB7A1E2B0E0E1E2F0E080818F60AB
:1006A0008C93A2E2B0E0E2E2F0E08081807F8C9364
:1006B000AAE0B1E0EAE0F1E0808188618C93ABE0F0
:1006C000B1E0EBE0F1E0808188618C93CF91DF9124
:1006D0000895DF93CF93CDB7DEB70E9446030E9403
:1006E00095000E94AA000E94BF000E94D400CF91F2
:1006F000DF910895DF93CF9300D00F92CDB7DEB78F
:100700009A8389837C836B838B819C818130910563
:1007100029F489819A810E94960204C089819A8174
:100720000E94A9020E94AE010F900F900F900F90AF
:10073000CF91DF910895DF93CF93CDB7DEB7A7E2D6
:10074000B0E0E7E2F0E08081876F8C93A8E2B0E050
:10075000E8E2F0E0808180788C93CF91DF9108957A
:100760000F931F93DF93CF93CDB7DEB7C057D04021
:100770000FB6F894DEBF0FBECDBFFE01E359FF4FA9
:1007800080E090E0A0E8BFE380839183A283B383FD
:100790008E0107591F4FFE01E359FF4F60817181A0
:1007A000828193812DEC3CEC4CE255E40E94BC1319
:1007B000DC01CB01F80180839183A283B383FE0126
:1007C000E759FF4F608171818281938120E030E0A1
:1007D00040E85FE30E94C215882344F4FE01E95912
:1007E000FF4F81E090E09183808364C0FE01E75970
:1007F000FF4F608171818281938120E03FEF4FE75D
:1008000057E40E94621518160CF043C0FE01E3592C
:10081000FF4F608171818281938120E030E040E26E
:1008200051E40E94BC13DC01CB018E0109591F4F1A
:10083000BC01CD010E94E611DC01CB01F8019183DE
:1008400080831FC0FE01EB59FF4F84E191E091834B
:100850008083FE01EB59FF4F808191810197F1F771
:10086000FE01EB59FF4F91838083DE01A959BF4FF1
:10087000FE01E959FF4F80819181019711969C9368
:100880008E93FE01E959FF4F808191810097D1F647
:1008900027C08E0109591F4FFE01E759FF4F6081A4
:1008A0007181828193810E94E611DC01CB01F80104
:1008B00091838083DE01AD59BF4FFE01E959FF4F9F
:1008C000808191818D939C93FE01ED59FF4F808132
:1008D00091810197F1F7FE01ED59FF4F91838083DC
:1008E000A8E2B0E0E8E2F0E080818E7F8C93A8E29D
:1008F000B0E0E8E2F0E080818D7F8C93E8E2F0E008
:1009000080E38083A8E2B0E0E8E2F0E080818460E8
:100910008C93FE01E15AFF4F80E090E0A0EAB0E442
:1009200080839183A283B3838E01055A1F4FFE01FA
:10093000E15AFF4F60817181828193812DEC3CEC03
:100940004CE255E40E94BC13DC01CB01F80180832A
:100950009183A283B383FE01E55AFF4F60817181C9
:100960008281938120E030E040E85FE30E94C2157D
:10097000882344F4FE01E75AFF4F81E090E0918321
:10098000808364C0FE01E55AFF4F608171818281DE
:10099000938120E03FEF4FE757E40E94621518165D
:1009A0000CF043C0FE01E15AFF4F608171818281EA
:1009B000938120E030E040E251E40E94BC13DC016E
:1009C000CB018E01075A1F4FBC01CD010E94E611D9
:1009D000DC01CB01F801918380831FC0FE01E95A3D
:1009E000FF4F84E191E091838083FE01E95AFF4F3C
:1009F000808191810197F1F7FE01E95AFF4F9183C0
:100A00008083DE01A75ABF4FFE01E75AFF4F808166
:100A10009181019711969C938E93FE01E75AFF4FA7
:100A2000808191810097D1F627C08E01075A1F4F10
:100A3000FE01E55AFF4F60817181828193810E949E
:100A4000E611DC01CB01F80191838083DE01AB5A12
:100A5000BF4FFE01E75AFF4F808191818D939C9398
:100A6000FE01EB5AFF4F808191810197F1F7FE0162
:100A7000EB5AFF4F91838083A8E2B0E0E8E2F0E018
:100A800080818B7F8C93FE01EF5AFF4F80E090E0D6
:100A9000A0E8BFE380839183A283B3838E01035BCD
:100AA0001F4FFE01EF5AFF4F608171818281938158
:100AB0002DEC3CEC4CE255E40E94BC13DC01CB0174
:100AC000F80180839183A283B383FE01E35BFF4F30
:100AD000608171818281938120E030E040E85FE3B2
:100AE0000E94C215882344F4FE01E55BFF4F81E0BC
:100AF00090E09183808364C0FE01E35BFF4F6081DF
:100B000071818281938120E03FEF4FE757E40E949B
:100B1000621518160CF043C0FE01EF5AFF4F6081BA
:100B200071818281938120E030E040E251E40E94B3
:100B3000BC13DC01CB018E01055B1F4FBC01CD0155
:100B40000E94E611DC01CB01F801918380831FC074
:100B5000FE01E75BFF4F84E191E091838083FE011A
:100B6000E75BFF4F808191810197F1F7FE01E75B21
:100B7000FF4F91838083DE01A55BBF4FFE01E55BE4
:100B8000FF4F80819181019711969C938E93FE0176
:100B9000E55BFF4F808191810097D1F627C08E01E0
:100BA000055B1F4FFE01E35BFF4F60817181828116
:100BB00093810E94E611DC01CB01F80191838083CF
:100BC000DE01A95BBF4FFE01E55BFF4F8081918194
:100BD0008D939C93FE01E95BFF4F8081918101978A
:100BE000F1F7FE01E95BFF4F91838083A8E2B0E05B
:100BF000E8E2F0E080818E7F8C93A8E2B0E0E8E24A
:100C0000F0E080818D7F8C93E8E2F0E080E38083E8
:100C1000A8E2B0E0E8E2F0E0808184608C93FE011D
:100C2000ED5BFF4F80E090E0A0EAB0E48083918329
:100C3000A283B3838E01015C1F4FFE01ED5BFF4F6A
:100C400060817181828193812DEC3CEC4CE255E412
:100C50000E94BC13DC01CB01F80180839183A28345
:100C6000B383FE01FF96608171818281938120E0D0
:100C700030E040E85FE30E94C21588232CF481E055
:100C800090E09EAF8DAF46C0FE01FF9660817181FE
:100C90008281938120E03FEF4FE757E40E94621585
:100CA000181664F5FE01ED5BFF4F60817181828152
:100CB000938120E030E040E251E40E94BC13DC016B
:100CC000CB01BC01CD010E94E611DC01CB019EAF3E
:100CD0008DAF0FC084E191E09CAF8BAF8BAD9CAD2D
:100CE0000197F1F79CAF8BAF8DAD9EAD01979EAF95
:100CF0008DAF8DAD9EAD009769F716C0FE01FF96D2
:100D000060817181828193810E94E611DC01CB01B7
:100D10009EAF8DAF8DAD9EAD9AAF89AF89AD9AADC7
:100D20000197F1F79AAF89AFA8E2B0E0E8E2F0E00E
:100D300080818B7F8C9380E090E0A0E8BFE38DAB57
:100D40009EABAFABB8AF6DA97EA98FA998AD2DECC6
:100D50003CEC4CE255E40E94BC13DC01CB0189ABB6
:100D60009AABABABBCAB69A97AA98BA99CA920E0D3
:100D700030E040E85FE30E94C21588232CF481E054
:100D800090E098AB8FA73FC069A97AA98BA99CA9CD
:100D900020E03FEF4FE757E40E94621518164CF52C
:100DA0006DA97EA98FA998AD20E030E040E251E422
:100DB0000E94BC13DC01CB01BC01CD010E94E611F5
:100DC000DC01CB0198AB8FA70FC084E191E09EA717
:100DD0008DA78DA59EA50197F1F79EA78DA78FA53D
:100DE00098A9019798AB8FA78FA598A9009769F745
:100DF00014C069A97AA98BA99CA90E94E611DC01FB
:100E0000CB0198AB8FA78FA598A99CA78BA78BA583
:100E10009CA50197F1F79CA78BA7A8E2B0E0E8E2B8
:100E2000F0E080818E7F8C93A8E2B0E0E8E2F0E011
:100E300080818D7F8C93E8E2F0E080E38083A8E2FC
:100E4000B0E0E8E2F0E0808184608C9380E090E0A4
:100E5000A0EAB0E48FA398A7A9A7BAA76FA178A525
:100E600089A59AA52DEC3CEC4CE255E40E94BC13FC
:100E7000DC01CB018BA39CA3ADA3BEA36BA17CA182
:100E80008DA19EA120E030E040E85FE30E94C21502
:100E900088232CF481E090E09AA389A33FC06BA142
:100EA0007CA18DA19EA120E03FEF4FE757E40E9477
:100EB000621518164CF56FA178A589A59AA520E0B2
:100EC00030E040E251E40E94BC13DC01CB01BC01E4
:100ED000CD010E94E611DC01CB019AA389A30FC0CA
:100EE00084E191E098A38F8F8F8D98A10197F1F7FE
:100EF00098A38F8F89A19AA101979AA389A389A109
:100F00009AA1009769F714C06BA17CA18DA19EA145
:100F10000E94E611DC01CB019AA389A389A19AA1C1
:100F20009E8F8D8F8D8D9E8D0197F1F79E8F8D8F6A
:100F3000A8E2B0E0E8E2F0E080818B7F8C9380E073
:100F400090E0A0E8BFE3898F9A8FAB8FBC8F698D4B
:100F50007A8D8B8D9C8D2DEC3CEC4CE255E40E94FF
:100F6000BC13DC01CB018D8B9E8BAF8BB88F6D8951
:100F70007E898F89988D20E030E040E85FE30E9411
:100F8000C21588232CF481E090E09C8B8B8B3FC0B2
:100F90006D897E898F89988D20E03FEF4FE757E478
:100FA0000E94621518164CF5698D7A8D8B8D9C8D7B
:100FB00020E030E040E251E40E94BC13DC01CB01B0
:100FC000BC01CD010E94E611DC01CB019C8B8B8B17
:100FD0000FC084E191E09A8B898B89899A89019766
:100FE000F1F79A8B898B8B899C8901979C8B8B8BD2
:100FF0008B899C89009769F714C06D897E898F89D8
:10100000988D0E94E611DC01CB019C8B8B8B8B8928
:101010009C89988B8F878F8598890197F1F7988B9A
:101020008F87A8E2B0E0E8E2F0E080818E7F8C93C9
:10103000A8E2B0E0E8E2F0E080818D7F8C93E8E206
:10104000F0E080E28083A8E2B0E0E8E2F0E08081B6
:1010500084608C9380E090E0A0E8BFE38B879C875E
:10106000AD87BE876B857C858D859E852DEC3CECA0
:101070004CE255E40E94BC13DC01CB018F839887BE
:10108000A987BA876F81788589859A8520E030E0C5
:1010900040E85FE30E94C21588232CF481E090E0D1
:1010A0009E838D833FC06F81788589859A8520E0F6
:1010B0003FEF4FE757E40E94621518164CF56B8519
:1010C0007C858D859E8520E030E040E251E40E94E1
:1010D000BC13DC01CB01BC01CD010E94E611DC0197
:1010E000CB019E838D830FC084E191E09C838B8331
:1010F0008B819C810197F1F79C838B838D819E81ED
:1011000001979E838D838D819E81009769F714C01E
:101110006F81788589859A850E94E611DC01CB0173
:101120009E838D838D819E819A83898389819A8113
:101130000197F1F79A838983A8E2B0E0E8E2F0E052
:1011400080818B7F8C93C059DF4F0FB6F894DEBF40
:101150000FBECDBFCF91DF911F910F910895DF9307
:10116000CF93CDB7DEB72E970FB6F894DEBF0FBE84
:10117000CDBF0E949B030E94B00380E090E0A0E8F6
:10118000BFE38B879C87AD87BE876B857C858D850C
:101190009E852DEC3CEC4CE255E40E94BC13DC0136
:1011A000CB018F839887A987BA876F8178858985D6
:1011B0009A8520E030E040E85FE30E94C215882372
:1011C0002CF481E090E09E838D833FC06F81788511
:1011D00089859A8520E03FEF4FE757E40E9462152A
:1011E00018164CF56B857C858D859E8520E030E05A
:1011F00040E251E40E94BC13DC01CB01BC01CD01F3
:101200000E94E611DC01CB019E838D830FC084E137
:1012100091E09C838B838B819C810197F1F79C8368
:101220008B838D819E8101979E838D838D819E818D
:10123000009769F714C06F81788589859A850E9427
:10124000E611DC01CB019E838D838D819E819A8383
:10125000898389819A810197F1F79A83898388E24A
:101260000E94470981E00E94470986E00E944709E1
:101270008EE00E94470980E80E9447092E960FB62B
:10128000F894DEBF0FBECDBFCF91DF910895DF93FD
:10129000CF93CDB7DEB76E970FB6F894DEBF0FBE13
:1012A000CDBF8E8F8E8D8D8F8D8D807F8D8FA8E29F
:1012B000B0E0E8E2F0E080818F708C93A8E2B0E0CB
:1012C000E8E2F0E090818D8D892B8C93A8E2B0E06C
:1012D000E8E2F0E080818E7F8C93A8E2B0E0E8E263
:1012E000F0E080818D7F8C93A8E2B0E0E8E2F0E04E
:1012F000808184608C9380E090E0A0EAB0E4898FE4
:101300009A8FAB8FBC8F698D7A8D8B8D9C8D2DECD8
:101310003CEC4CE255E40E94BC13DC01CB018D8B0C
:101320009E8BAF8BB88F6D897E898F89988D20E0D9
:1013300030E040E85FE30E94C21588232CF481E08E
:1013400090E09C8B8B8B3FC06D897E898F89988DB7
:1013500020E03FEF4FE757E40E94621518164CF566
:10136000698D7A8D8B8D9C8D20E030E040E251E4D8
:101370000E94BC13DC01CB01BC01CD010E94E6112F
:10138000DC01CB019C8B8B8B0FC084E191E09A8BAD
:10139000898B89899A890197F1F79A8B898B8B8937
:1013A0009C8901979C8B8B8B8B899C89009769F713
:1013B00014C06D897E898F89988D0E94E611DC01A9
:1013C000CB019C8B8B8B8B899C89988B8F878F858E
:1013D00098890197F1F7988B8F87A8E2B0E0E8E24F
:1013E000F0E080818B7F8C938E8D8F708E8F8E8DB1
:1013F0008295807F8E8FA8E2B0E0E8E2F0E0808105
:101400008F708C93A8E2B0E0E8E2F0E090818E8DDE
:10141000892B8C93A8E2B0E0E8E2F0E080818E7F37
:101420008C93A8E2B0E0E8E2F0E080818D7F8C93BD
:10143000A8E2B0E0E8E2F0E0808184608C9380E094
:1014400090E0A0EAB0E48B879C87AD87BE876B8570
:101450007C858D859E852DEC3CEC4CE255E40E940C
:10146000BC13DC01CB018F839887A987BA876F8172
:10147000788589859A8520E030E040E85FE30E9426
:10148000C21588232CF481E090E09E838D833FC0B9
:101490006F81788589859A8520E03FEF4FE757E493
:1014A0000E94621518164CF56B857C858D859E858E
:1014B00020E030E040E251E40E94BC13DC01CB01AB
:1014C000BC01CD010E94E611DC01CB019E838D831E
:1014D0000FC084E191E09C838B838B819C81019779
:1014E000F1F79C838B838D819E8101979E838D83F1
:1014F0008D819E81009769F714C06F8178858985F9
:101500009A850E94E611DC01CB019E838D838D813B
:101510009E819A83898389819A810197F1F79A83C1
:101520008983A8E2B0E0E8E2F0E080818B7F8C93D1
:101530006E960FB6F894DEBF0FBECDBFCF91DF9190
:101540000895DF93CF93CDB7DEB76E970FB6F894BB
:10155000DEBF0FBECDBF8E8F8E8D8D8F8D8D807F28
:101560008D8FA8E2B0E0E8E2F0E080818F708C938C
:10157000A8E2B0E0E8E2F0E090818D8D892B8C93B9
:10158000A8E2B0E0E8E2F0E0808181608C93A8E21C
:10159000B0E0E8E2F0E080818D7F8C93A8E2B0E0DB
:1015A000E8E2F0E0808184608C9380E090E0A0EA43
:1015B000B0E4898F9A8FAB8FBC8F698D7A8D8B8DBC
:1015C0009C8D2DEC3CEC4CE255E40E94BC13DC01FC
:1015D000CB018D8B9E8BAF8BB88F6D897E898F8968
:1015E000988D20E030E040E85FE30E94C215882338
:1015F0002CF481E090E09C8B8B8B3FC06D897E89C1
:101600008F89988D20E03FEF4FE757E40E946215E5
:1016100018164CF5698D7A8D8B8D9C8D20E030E00D
:1016200040E251E40E94BC13DC01CB01BC01CD01BE
:101630000E94E611DC01CB019C8B8B8B0FC084E1F7
:1016400091E09A8B898B89899A890197F1F79A8B16
:10165000898B8B899C8901979C8B8B8B8B899C892F
:10166000009769F714C06D897E898F89988D0E94D3
:10167000E611DC01CB019C8B8B8B8B899C89988B31
:101680008F878F8598890197F1F7988B8F87A8E2CC
:10169000B0E0E8E2F0E080818B7F8C938E8D8F70DC
:1016A0008E8F8E8D8295807F8E8FA8E2B0E0E8E2EB
:1016B000F0E080818F708C93A8E2B0E0E8E2F0E087
:1016C00090818E8D892B8C93A8E2B0E0E8E2F0E067
:1016D000808181608C93A8E2B0E0E8E2F0E0808154
:1016E0008D7F8C93A8E2B0E0E8E2F0E08081846036
:1016F0008C9380E090E0A0EAB0E48B879C87AD8774
:10170000BE876B857C858D859E852DEC3CEC4CE2FF
:1017100055E40E94BC13DC01CB018F839887A98715
:10172000BA876F81788589859A8520E030E040E826
:101730005FE30E94C21588232CF481E090E09E8331
:101740008D833FC06F81788589859A8520E03FEF42
:101750004FE757E40E94621518164CF56B857C859F
:101760008D859E8520E030E040E251E40E94BC136C
:10177000DC01CB01BC01CD010E94E611DC01CB01F3
:101780009E838D830FC084E191E09C838B838B814A
:101790009C810197F1F79C838B838D819E810197BA
:1017A0009E838D838D819E81009769F714C06F8120
:1017B000788589859A850E94E611DC01CB019E839C
:1017C0008D838D819E819A83898389819A810197F6
:1017D000F1F79A838983A8E2B0E0E8E2F0E0808143
:1017E0008B7F8C936E960FB6F894DEBF0FBECDBF85
:1017F000CF91DF910895DF93CF93CDB7DEB780E827
:101800000E944709CF91DF910895DF93CF930F9204
:101810000F92CDB7DEB79A8389830AC0E981FA8136
:1018200080810E94A10A89819A8101969A83898385
:10183000E981FA818081882389F70F900F90CF91F9
:10184000DF910895DF93CF9300D00F92CDB7DEB72D
:1018500089836A838981282F30E03C832B838B81A5
:101860009C8182309105D9F02B813C812330310558
:1018700034F48B819C818130910561F01EC02B81F5
:101880003C812330310581F08B819C81843091052E
:1018900081F013C08A8181580E9447090EC08A8155
:1018A00081540E94470909C08A818D560E944709C8
:1018B00004C08A818D520E9447090F900F900F90AB
:1018C0000F90CF91DF910895DF93CF93CDB7DEB71F
:1018D00027970FB6F894DEBF0FBECDBF8A836B8308
:1018E0005D834C833F832E8319828A81882319F07C
:1018F0008B81882319F40E94FB0B04C08A816B81C1
:101900000E94220C8E819F818530910519F089817A
:101910008130A9F48C819D8120E137E2B9010E94D8
:101920004319CB01C09690931507809314078091BB
:101930001407909115070E94A10A81E089838E8186
:101940009F818430910519F08981813011F58C8156
:101950009D8128EE33E0B9010E944319CB01909399
:1019600017078093160780911607909117072AE0B2
:1019700030E0B9010E944319C0969093F30E809312
:10198000F20E8091F20E9091F30E0E94A10A81E076
:1019900089838E819F818330910519F089818130FF
:1019A00011F58C819D8124E630E0B9010E94431934
:1019B000CB0190931707809316078091160790919B
:1019C00017072AE030E0B9010E944319C0969093AE
:1019D000EB0E8093EA0E8091EA0E9091EB0E0E943E
:1019E000A10A81E089838E819F818230910519F05F
:1019F0008981813011F58C819D812AE030E0B90127
:101A00000E944319CB01909317078093160780918A
:101A10001607909117072AE030E0B9010E94431998
:101A2000C0969093E90E8093E80E8091E80E909115
:101A3000E90E0E94A10A81E089838E819F81813015
:101A4000910519F08981813091F48C819D812AE082
:101A500030E0B9010E944319C0969093F10E809333
:101A6000F00E8091F00E9091F10E0E94A10A8E81ED
:101A70009F81863091051CF085E40E94A10A27967B
:101A80000FB6F894DEBF0FBECDBFCF91DF910895A2
:101A9000DF93CF93CDB7DEB72D970FB6F894DEBFA7
:101AA0000FBECDBF9D878C8781E065E00E94220C30
:101AB0008C859D859E012E5F3F4FB9014AE050E025
:101AC0000E941219CE0102960E94050C80E28983C1
:101AD00089810E94A10A2D960FB6F894DEBF0FBE31
:101AE000CDBFCF91DF910895DF93CF93CDB7DEB710
:101AF000A4E2B0E0E4E2F0E0808180648C93A5E2AF
:101B0000B0E0E5E2F0E0808180648C93CF91DF91DA
:101B10000895DF93CF93CDB7DEB7E1E8F0E0108210
:101B2000E5E8F0E08CEF8083E4E8F0E081E080839A
:101B3000EBE8F0E083E08083EAE8F0E08FEF808379
:101B4000E7E8F0E083E08083E6E8F0E08FEF808371
:101B5000E0E8F0E08BEA8083E2E8F0E01082E1E880
:101B6000F0E08CE08083CF91DF910895DF93CF93F5
:101B7000CDB7DEB7E1E3F1E01082E0E3F1E01082FF
:101B8000E2E3F1E086E08083E4E3F1E08FE5808347
:101B9000E5E3F1E01082E1E3F1E088E98083CF91B1
:101BA000DF910895DF93CF93CDB7DEB7A7E2B0E022
:101BB000E7E2F0E0808188608C93A8E2B0E0E8E2A0
:101BC000F0E08081877F8C93CF91DF910895DF9340
:101BD000CF930F92CDB7DEB71982E6E2F0E08081B5
:101BE0008983898188608983E8E2F0E08981808344
:101BF0000F90CF91DF910895DF93CF930F92CDB7E0
:101C0000DEB71982E6E2F0E0808189838981877FEF
:101C10008983E8E2F0E0898180830F90CF91DF91A2
:101C200008951F920F920FB60F9200905B000F92D3
:101C300011242F933F934F935F938F939F93EF9331
:101C4000FF93DF93CF9300D0CDB7DEB7E6E3F1E0AB
:101C500080818B838B81882F90E0C0979A838983C2
:101C60008B81843251F48091EE0E9091EF0E0196AB
:101C70009093EF0E8093EE0E89C08B81863481F4B1
:101C80008091EE0E9091EF0EFC01E45DFC4F86E436
:101C9000808381E090E0909329038093280376C0AD
:101CA0008B81823451F48091EE0E9091EF0EFC0105
:101CB000E45DFC4F82E4808369C08B81823551F4FE
:101CC0008091EE0E9091EF0EFC01E45DFC4F82E5F9
:101CD00080835CC08B818C3451F48091EE0E9091A6
:101CE000EF0EFC01E45DFC4F8CE480834FC08B81E0
:101CF000843451F48091EE0E9091EF0EFC01E45D7E
:101D0000FC4F84E4808342C08B81853551F48091FF
:101D1000EE0E9091EF0EFC01E45DFC4F85E58083B3
:101D200035C089819A818B30910584F589819A81AA
:101D3000992364F1809128039091290381309105C2
:101D400029F54091EE0E5091EF0E8091EE0E90919C
:101D5000EF0E880F991FFC01E85EF84F808191819A
:101D60009C01220F331FC901880F991F880F991FEB
:101D7000280F391F89819A81280F391FCA01880FBE
:101D8000991FFC01E85EF84F318320830F900F907C
:101D90000F90CF91DF91FF91EF919F918F915F9184
:101DA0004F913F912F910F9000925B000F900FBECB
:101DB0000F901F9018950F931F93DF93CF93CDB77C
:101DC000DEB728970FB6F894DEBF0FBECDBF6D8388
:101DD0007E838F83988780E090E0A0E0B0E08983E5
:101DE0009A83AB83BC836D817E818F8198852BE73D
:101DF00034E14EEE5FE30E94B614DC01CB01BC017E
:101E0000CD0120E030E04CE052E40E948F13DC0171
:101E1000CB0189839A83AB83BC83EBE8F0E010822B
:101E20000AE810E069817A818B819C810E94E61129
:101E3000DC01CB01F801808328960FB6F894DEBF51
:101E40000FBECDBFCF91DF911F910F910895DF930A
:101E5000CF93CDB7DEB7EBE8F0E083E08083EAE82C
:101E6000F0E08FEF8083CF91DF910895DF93CF93E0
:101E7000CDB7DEB760970FB6F894DEBF0FBECDBF0B
:101E800082E390E0988B8F878F859889AA2797FDAA
:101E9000A095BA2FBC01CD010E94F215DC01CB0147
:101EA000BC01CD010E94DB0E80E090E0AAEFB4E41B
:101EB0008B879C87AD87BE876B857C858D859E854E
:101EC0002DEC3CEC4CE255E40E94BC13DC01CB0150
:101ED0008F839887A987BA876F81788589859A8546
:101EE00020E030E040E85FE30E94C21588232CF434
:101EF00081E090E09E838D833FC06F8178858985E6
:101F00009A8520E03FEF4FE757E40E9462151816CC
:101F10004CF56B857C858D859E8520E030E040E228
:101F200051E40E94BC13DC01CB01BC01CD010E9435
:101F3000E611DC01CB019E838D830FC084E191E02B
:101F40009C838B838B819C810197F1F79C838B838E
:101F50008D819E8101979E838D838D819E810097C7
:101F600069F714C06F81788589859A850E94E6118A
:101F7000DC01CB019E838D838D819E819A83898331
:101F800089819A810197F1F79A8389830E94270FAB
:101F900060960FB6F894DEBF0FBECDBFCF91DF9134
:101FA0000895DF93CF93CDB7DEB760970FB6F8945F
:101FB000DEBF0FBECDBF8CE590E0988B8F8760E0D1
:101FC00070E08AEB92E40E94DB0E80E090E0AAEFE2
:101FD000B4E48B879C87AD87BE876B857C858D85B8
:101FE0009E852DEC3CEC4CE255E40E94BC13DC01D8
:101FF000CB018F839887A987BA876F817885898578
:102000009A8520E030E040E85FE30E94C215882313
:102010002CF481E090E09E838D833FC06F817885B2
:1020200089859A8520E03FEF4FE757E40E946215CB
:1020300018164CF56B857C858D859E8520E030E0FB
:1020400040E251E40E94BC13DC01CB01BC01CD0194
:102050000E94E611DC01CB019E838D830FC084E1D9
:1020600091E09C838B838B819C810197F1F79C830A
:102070008B838D819E8101979E838D838D819E812F
:10208000009769F714C06F81788589859A850E94C9
:10209000E611DC01CB019E838D838D819E819A8325
:1020A000898389819A810197F1F79A8389830E94B4
:1020B000270F60960FB6F894DEBF0FBECDBFCF914D
:1020C000DF910895DF93CF93CDB7DEB70E94740DF3
:1020D0000E94D20DCF91DF910895DF93CF93CDB7BA
:1020E000DEB7F8940E9462100E94890D0E94AF082A
:1020F0000E94B60D0E9469037894CF91DF910895F4
:10210000DF93CF93CDB7DEB760970FB6F894DEBFFD
:102110000FBECDBF0E946D101092EF0E1092EE0E0A
:102120001092ED0E1092EC0E188A1F860EC08F854D
:102130009889880F991FFC01E85EF84F1182108280
:102140008F8598890196988B8F878F85988923E052
:10215000883E920764F382E061E00E94220C82E0F4
:1021600092E00E94050C2091EC0E3091ED0E8091D2
:10217000EE0E9091EF0E28173907ACF78091EC0E18
:102180009091ED0E880F991FFC01E85EF84F808159
:1021900091819C0181E069E0A90123E030E00E9487
:1021A000640C81E061E00E94220C8091EC0E909121
:1021B000ED0EFC01E45DFC4F80818634A1F48AE0E1
:1021C00092E00E94050C8091EC0E9091ED0E880F2C
:1021D000991FFC01E85EF84F8081918161E070E019
:1021E0000E947A0377C08091EC0E9091ED0EFC0175
:1021F000E45DFC4F80818234A1F48CE092E00E9487
:10220000050C8091EC0E9091ED0E880F991FFC014A
:10221000E85EF84F8081918160E070E00E947A036F
:1022200059C08091EC0E9091ED0EFC01E45DFC4FE5
:102230008081823591F48EE092E00E94050C8091BD
:10224000EC0E9091ED0E880F991FFC01E85EF84F9F
:10225000808191810E94CF023DC08091EC0E9091CF
:10226000ED0EFC01E45DFC4F80818C3491F480E143
:1022700092E00E94050C8091EC0E9091ED0E880F7B
:10228000991FFC01E85EF84F808191810E94BC0299
:1022900021C08091EC0E9091ED0EFC01E45DFC4FAD
:1022A0008081853539F482E192E00E94050C0E941C
:1022B000360F10C08091EC0E9091ED0EFC01E45DA4
:1022C000FC4F8081843431F484E192E00E94050C5B
:1022D0000E94D10F8091EC0E9091ED0E019690939B
:1022E000ED0E8093EC0E80E090E0AAE7B4E48B87DB
:1022F0009C87AD87BE876B857C858D859E852DEC03
:102300003CEC4CE255E40E94BC13DC01CB018F8312
:102310009887A987BA876F81788589859A8520E013
:1023200030E040E85FE30E94C21588232CF481E08E
:1023300090E09E838D833FC06F81788589859A85E3
:1023400020E03FEF4FE757E40E94621518164CF566
:102350006B857C858D859E8520E030E040E251E4F0
:102360000E94BC13DC01CB01BC01CD010E94E6112F
:10237000DC01CB019E838D830FC084E191E09C83BF
:102380008B838B819C810197F1F79C838B838D815B
:102390009E8101979E838D838D819E81009769F731
:1023A000E2CE6F81788589859A850E94E611DC01ED
:1023B000CB019E838D838D819E819A8389838981C0
:1023C0009A810197F1F79A838983CDCEEF92FF929C
:1023D0000F931F937B018C0120E030E040E05FE42D
:1023E0000E94921588238CF0C801B70120E030E0EC
:1023F00040E05FE40E945E130E9450169B01AC0116
:10240000205030404040504806C0C801B7010E94EB
:1024100050169B01AC01B901CA011F910F91FF90A9
:10242000EF900895A0E0B0E0E8E1F2E10C945719D4
:10243000DC012B01FA019C91923008F439C1EB01C7
:102440008881823008F433C1943069F4843009F013
:102450002FC111969C9111978981981709F428C171
:10246000A6E1B2E025C1843009F421C18230A9F48B
:10247000923009F01DC19A01AD0188E0EA0109908E
:10248000AE01E90109929E018150C1F7E201898103
:1024900011969C918923818308C1923009F407C168
:1024A00012962D903C901397EB018A819B81149694
:1024B000AD90BD90CD90DC901797EC80FD800E81A3
:1024C0001F819101281B390BB90137FF04C0662712
:1024D0007727621B730B603271050CF061C0121616
:1024E00013066CF537014801062E04C096948794B4
:1024F000779467940A94D2F721E030E040E050E00E
:1025000004C0220F331F441F551F6A95D2F7215074
:102510003040404050402E213F214023512321157F
:1025200031054105510521F021E030E040E050E067
:1025300079018A01E628F728082919293CC0232BAC
:10254000D1F1260E371E35014601062E04C09694A1
:102550008794779467940A94D2F721E030E040E0C2
:1025600050E004C0220F331F441F551F6A95D2F755
:1025700021503040404050402A213B214C215D21D8
:10258000211531054105510521F021E030E040E001
:1025900050E059016A01A628B728C828D9280BC0DD
:1025A000821593052CF01C01AA24BB24650103C0ED
:1025B000EE24FF24870111969C91D20111968C91F3
:1025C000981709F445C0992339F0A80197012A19F1
:1025D0003B094C095D0906C0A60195012E193F096A
:1025E000400B510B57FD08C0118233822282248395
:1025F0003583468357831DC081E0818333822282E5
:1026000088279927DC01821B930BA40BB50B8483CD
:102610009583A683B7830DC0220F331F441F551F18
:1026200024833583468357838281938101979383E3
:1026300082832481358146815781DA01C90101975E
:10264000A109B1098F5F9F4FAF4FBF4328F30BC064
:10265000918333822282EA0CFB1C0C1D1D1DE48237
:10266000F5820683178383E0808324813581468148
:10267000578157FF1AC0C901AA2797FDA095BA2F05
:1026800081709070A070B0705695479537952795DA
:10269000822B932BA42BB52B84839583A683B7839E
:1026A00082819381019693838283DF0101C0D201ED
:1026B000CD01CDB7DEB7E2E10C947319A0E2B0E032
:1026C000E4E6F3E10C94631969837A838B839C833A
:1026D0002D833E834F835887E9E0EE2EF12CEC0EDC
:1026E000FD1ECE010196B7010E9441188E010F5EBA
:1026F0001F4FCE010596B8010E9441188A8991E0CA
:1027000089278A8BC701B801AE01475E5F4F0E94DF
:1027100012120E946C17A096E6E00C947F19A0E2BA
:10272000B0E0E5E9F3E10C94631969837A838B8364
:102730009C832D833E834F835887F9E0EF2EF12C45
:10274000EC0EFD1ECE010196B7010E9441188E01CC
:102750000F5E1F4FCE010596B8010E944118C701B8
:10276000B801AE01475E5F4F0E9412120E946C17C3
:10277000A096E6E00C947F19A0E2B0E0E2ECF3E171
:102780000C94571969837A838B839C832D833E83B2
:102790004F835887CE010196BE01675F7F4F0E942D
:1027A0004118CE010596BE016F5E7F4F0E94411811
:1027B0009985923088F089898230C8F0943019F474
:1027C000823051F404C0843029F4923081F486E1DF
:1027D00092E0C6C0923049F420E09A858A89981325
:1027E00021E02A87CE010996BBC0823049F420E05F
:1027F0009A858A89981321E02A8BCE014196B0C030
:102800002D843E844F8458886D887E888F88988C6C
:10281000EE24FF248701AA24BB24650140E050E098
:1028200060E070E0E0E0F0E0C10181709070892B21
:10283000E9F0E60CF71C081D191D9A01AB012A0DE1
:102840003B1D4C1D5D1D80E090E0A0E0B0E0E61473
:10285000F7040805190520F481E090E0A0E0B0E05D
:10286000BA01A901480F591F6A1F7B1FAA0CBB1C84
:10287000CC1CDD1C97FE08C081E090E0A0E0B0E039
:10288000A82AB92ACA2ADB2A3196E032F10549F092
:10289000660C771C881C991C56944794379427948F
:1028A000C3CFFA85EA892B893C898B859C85280FC3
:1028B000391F2E5F3F4F17C0CA0181709070892B5E
:1028C00061F016950795F794E79480E090E0A0E01A
:1028D000B0E8E82AF92A0A2B1B2B769567955795BD
:1028E00047952F5F3F4F77FDE7CF0CC0440F551F33
:1028F000661F771F17FD4160EE0CFF1C001F111FA4
:1029000021503040403090E0590790E0690790E452
:10291000790760F32B8F3C8FDB01CA018F779070B2
:10292000A070B07080349105A105B10561F447FD38
:102930000AC0E114F1040105110529F0405C5F4F64
:102940006F4F7F4F40781A8EFE1711F081E08A8F0B
:102950004D8F5E8F6F8F78A383E0898FCE0149966C
:102960000E946C17A096E2E10C947319A8E1B0E004
:10297000ECEBF4E10C945F1969837A838B839C837D
:102980002D833E834F835887B9E0EB2EF12CEC0E5C
:10299000FD1ECE010196B7010E9441188E010F5E07
:1029A0001F4FCE010596B8010E944118298522309B
:1029B00008F47EC03989323010F4B8017CC08A85B1
:1029C0009A8989278A87243011F0223031F423171D
:1029D00009F06EC066E172E06EC0343039F41D86D5
:1029E0001E861F86188A1C861B8604C0323021F47E
:1029F00084E08987B7015FC02B853C858B899C89E2
:102A0000281B390B3C872B87ED84FE840F851889A2
:102A1000AD88BE88CF88D88CEA14FB040C051D0550
:102A200040F4EE0CFF1C001F111F215030403C876A
:102A30002B8720E030E040E050E080E090E0A0E034
:102A4000B0E460E070E0EA14FB040C051D0540F002
:102A5000282B392B4A2B5B2BEA18FB080C091D0984
:102A6000B695A79597958795EE0CFF1C001F111F33
:102A70006F5F7F4F6F31710531F7DA01C9018F77D1
:102A80009070A070B07080349105A105B10561F41B
:102A900027FD0AC0E114F1040105110529F0205CAD
:102AA0003F4F4F4F5F4F20782D873E874F87588B82
:102AB000BE01675F7F4FCB010E946C176896EAE00A
:102AC0000C947B19A8E1B0E0E8E6F5E10C946319F9
:102AD00069837A838B839C832D833E834F835887BE
:102AE00089E0E82EF12CEC0EFD1ECE010196B70117
:102AF0000E9441188E010F5E1F4FCE010596B8014E
:102B00000E9441188985823040F08989823028F0FE
:102B1000C701B8010E94B91801C08FEF6896E6E0BE
:102B20000C947F19A8E1B0E0E8E9F5E10C94631991
:102B300069837A838B839C832D833E834F8358875D
:102B400089E0E82EF12CEC0EFD1ECE010196B701B6
:102B50000E9441188E010F5E1F4FCE010596B801ED
:102B60000E9441188985823040F08989823028F09E
:102B7000C701B8010E94B91801C08FEF6896E6E05E
:102B80000C947F19A8E1B0E0E8ECF5E10C9463192E
:102B900069837A838B839C832D833E834F835887FD
:102BA00089E0E82EF12CEC0EFD1ECE010196B70156
:102BB0000E9441188E010F5E1F4FCE010596B8018D
:102BC0000E9441188985823040F08989823028F03E
:102BD000C701B8010E94B91801C081E06896E6E01B
:102BE0000C947F19A8E0B0E0E8EFF5E10C946019CF
:102BF0009B01AC0183E08983DA01C9018827B7FD15
:102C000083959927AA27BB27B82E211531054105A1
:102C1000510519F482E089833AC08823A9F0203055
:102C200080E0380780E0480780E8580729F460E032
:102C300070E080E09FEC30C0EE24FF248701E21AB0
:102C4000F30A040B150B02C079018A018EE1C82E2C
:102C5000D12CDC82CB82ED82FE820F831887C801E3
:102C6000B7010E941D1701971816190684F4082E43
:102C700004C0EE0CFF1C001F111F0A94D2F7ED8256
:102C8000FE820F831887C81AD90ADC82CB82BA82E7
:102C9000CE0101960E946C172896E9E00C947C19ED
:102CA000ACE0B0E0E6E5F6E10C94671969837A835D
:102CB0008B839C83CE010196BE016B5F7F4F0E9488
:102CC00041188D81823061F1823050F1843021F4DD
:102CD0008E81882351F12EC02F81388537FD20C089
:102CE0006E812F3131051CF06623F9F023C08EE18F
:102CF00090E0821B930B29853A854B855C8504C047
:102D000056954795379527958A95D2F76623B1F062
:102D100050954095309521953F4F4F4F5F4F0EC0D6
:102D200020E030E040E050E009C02FEF3FEF4FEFF0
:102D30005FE704C020E030E040E050E8B901CA019C
:102D40002C96E2E00C948319A8E0B0E0EAEAF6E100
:102D50000C945F197B018C0161157105810591054A
:102D600019F482E0898360C083E089838EE1C82EF4
:102D7000D12CDC82CB82ED82FE820F831887C801C2
:102D8000B7010E941D17FC013197F7FF3BC02227B6
:102D900033272E1B3F0B57016801022E04C0D69427
:102DA000C794B794A7940A94D2F740E050E060E04B
:102DB00070E081E090E0A0E0B0E004C0880F991FCF
:102DC000AA1FBB1F2A95D2F70197A109B1098E212D
:102DD0009F21A023B1230097A105B10521F041E077
:102DE00050E060E070E04A295B296C297D294D8321
:102DF0005E836F8378878EE190E08E1B9F0B9C83B0
:102E00008B8312C0309781F00E2E04C0EE0CFF1C95
:102E1000001F111F0A94D2F7ED82FE820F831887DC
:102E2000CE1ADF0ADC82CB821A82CE0101960E9482
:102E30006C172896EAE00C947B19EF92FF920F939F
:102E40001F937B018C0180E0E81680E0F80681E0AA
:102E5000080780E0180788F48FEFE816F1040105F1
:102E6000110531F028F088E090E0A0E0B0E017C054
:102E700080E090E0A0E0B0E012C080E0E81680E0E2
:102E8000F80680E0080781E0180728F088E190E064
:102E9000A0E0B0E004C080E190E0A0E0B0E020E27B
:102EA00030E040E050E0281B390B4A0B5B0B04C0BC
:102EB00016950795F794E7948A95D2F7F701E25EA5
:102EC000FD4F8081281B310941095109C9011F911A
:102ED0000F91FF90EF900895DF92EF92FF920F9382
:102EE0001F93FC01E480F58006811781D1808081E9
:102EF000823048F480E090E0A0E1B0E0E82AF92ACE
:102F00000A2B1B2BA5C0843009F49FC0823021F40A
:102F1000EE24FF24870105C0E114F1040105110529
:102F200019F4E0E0F0E096C0628173819FEF6238AF
:102F300079070CF05BC022E83FEF261B370B2A31E4
:102F400031052CF020E030E040E050E02AC0B8012C
:102F5000A701022E04C076956795579547950A9468
:102F6000D2F781E090E0A0E0B0E004C0880F991FA4
:102F7000AA1FBB1F2A95D2F70197A109B1098E217B
:102F80009F21A023B1230097A105B10521F081E085
:102F900090E0A0E0B0E09A01AB01282B392B4A2B3E
:102FA0005B2BDA01C9018F779070A070B07080340C
:102FB0009105A105B10539F427FF09C0205C3F4FF9
:102FC0004F4F5F4F04C0215C3F4F4F4F5F4FE0E0DA
:102FD000F0E02030A0E03A07A0E04A07A0E45A075A
:102FE00010F0E1E0F0E079018A0127C06038710556
:102FF00064F5FB01E158FF4FD801C7018F7790704E
:10300000A070B07080349105A105B10539F4E7FED8
:103010000DC080E490E0A0E0B0E004C08FE390E059
:10302000A0E0B0E0E80EF91E0A1F1B1F17FF05C045
:1030300016950795F794E794319687E016950795CE
:10304000F794E7948A95D1F705C0EE24FF24870111
:10305000EFEFF0E06E2F679566276795902F9F77CB
:10306000D794DD24D7948E2F8695492F462B582F41
:103070005D29B701CA011F910F91FF90EF90DF907A
:103080000895FC01DB01408151812281622F6F771D
:1030900070E0221F2227221F9381892F880F822B05
:1030A000282F30E0991F9927991F11969C9311970B
:1030B00021153105A9F5411551056105710511F479
:1030C00082E037C082E89FEF13969C938E9312970D
:1030D0009A01AB0167E0220F331F441F551F6A9509
:1030E000D1F783E08C930DC0220F331F441F551F6F
:1030F00012968D919C911397019713969C938E93A2
:103100001297203080E0380780E0480780E45807B5
:1031100058F314962D933D934D935C931797089510
:103120002F3F310579F4411551056105710519F4F9
:1031300084E08C93089564FF03C081E08C9312C0F7
:103140001C9210C02F57304013963C932E93129729
:1031500083E08C9387E0440F551F661F771F8A9585
:10316000D1F7706414964D935D936D937C9317978C
:1031700008951F93DC01FB019C91923008F447C035
:103180008081823008F443C0943051F411961C9130
:10319000843099F58181682F70E0611B71093FC00F
:1031A000843021F0923031F48230B9F1818188236A
:1031B00089F12DC011961C9111978230F1F0818117
:1031C0001817D9F412962D913C911397828193810F
:1031D0008217930794F028173907BCF014968D9145
:1031E0009D910D90BC91A02D248135814681578100
:1031F000281739074A075B0718F4112341F00AC062
:1032000082179307A407B50740F4112319F061E072
:1032100070E005C06FEF7FEF02C060E070E0CB01AF
:103220001F910895FB019F01E8944230C4F045329C
:10323000B4F44A3029F497FB1EF4909581959F4F82
:10324000642F77270E944319805D8A330CF0895DD3
:103250008193CB010097A1F716F45DE251931082A0
:10326000C9010C943319DC01FC01672F719177239C
:10327000E1F7329704C07C916D9370836291AE1731
:10328000BF07C8F30895AA1BBB1B51E107C0AA1FC3
:10329000BB1FA617B70710F0A61BB70B881F991FF7
:1032A0005A95A9F780959095BC01CD0108952F926C
:1032B0003F924F925F926F927F928F929F92AF92C6
:1032C000BF92CF92DF92EF92FF920F931F93CF9313
:1032D000DF93CDB7DEB7CA1BDB0B0FB6F894DEBFAA
:1032E0000FBECDBF19942A88398848885F846E84C0
:1032F0007D848C849B84AA84B984C884DF80EE801A
:10330000FD800C811B81AA81B981CE0FD11D0FB622
:10331000F894DEBF0FBECDBFED010895F894FFCF46
:103320000600445241574F494400460042005200B3
:103330004C005500440000000000000000000001A7
:103340000202030303030404040404040404050543
:10335000050505050505050505050505050506061B
:1033600006060606060606060606060606060606FD
:1033700006060606060606060606060606060707EB
:1033800007070707070707070707070707070707CD
:1033900007070707070707070707070707070707BD
:1033A00007070707070707070707070707070707AD
:1033B000070707070707070707070707070708089B
:1033C000080808080808080808080808080808087D
:1033D000080808080808080808080808080808086D
:1033E000080808080808080808080808080808085D
:1033F000080808080808080808080808080808084D
:10340000080808080808080808080808080808083C
:10341000080808080808080808080808080808082C
:10342000080808080808080808080808080808081C
:0E34300008080808080808080808080808081E
:00000001FF
